:020000040800F2
:100000008059002085140008A50A0008A70A0008E6
:10001000AB0A0008AF0A0008B30A0008000000009D
:10002000000000000000000000000000B70A000807
:10003000B90A000800000000A3E50008111200083A
:100040009F1400089F1400089F1400089F140008C4
:100050009F1400089F1400089F1400089F140008B4
:100060009F1400089F1400089F1400089F140008A4
:100070009F1400089F1400089F1400089F14000894
:100080009F1400089F1400089F1400089F14000884
:100090009F1400089F1400089F1400089F14000874
:1000A0009F1400089F1400089F1400089F14000864
:1000B000AB1100089F140008230F00089F140008CC
:1000C0009F1400089F1400089F1400089F14000844
:1000D0009F140008F31300080F0D00088F0F00088D
:1000E0009F1400089F1400089F1400089F14000824
:1000F0009F1400089F1400089F1400089F14000814
:100100009F1400089F1400089F1400089F14000803
:100110009F1400089F1400089F1400089F140008F3
:100120009F1400089F1400089F1400089F140008E3
:1001300000F002F800F0B0F80AA090E8000C824449
:100140008344AAF10107DA4501D100F0A5F8AFF226
:10015000090EBAE80F0013F0010F18BFFB1A43F0A5
:1001600001031847FCEB00001CEC00000A444FF0B0
:10017000000C10F8013B13F0070408BF10F8014B06
:100180001D1108BF10F8015B641E05D010F8016B4B
:10019000641E01F8016BF9D113F0080F1EBF10F8AF
:1001A000014BAD1C0C1B09D16D1E58BF01F801CBD2
:1001B000FAD505E014F8016B01F8016B6D1EF9D555
:1001C0009142D6D37047000000230024002500266A
:1001D000103A28BF78C1FBD8520728BF30C148BFAA
:1001E0000B6070476E290DF0D28070290DF03D82B2
:1001F00066290EF0728365290EF06F8367290EF071
:100200006C836129AFF3008003681B0A28BF41F0AB
:10021000800169290CF0F48664290CF0F1867529B7
:100220000CF0EE866F290DF0CB8178290DF0098254
:10023000E9290DF06581E4290DF06281F5290DF0C1
:100240005F81EF290DF0C881F8290DF0088203685D
:10025000DB0928BF41F0800163290DF0D4807329A8
:100260000DF0D980E3290DF06784F3290DF06C843B
:10027000002070471FB50DF0BDFC040000200021D8
:100280000EF0F2F9401C6060002000210EF0D6F95B
:10029000E0601FBD10B510BD0DF07EFC1146FFF7EC
:1002A000E9FF00F04AFB0DF057FD03B4FFF7F2FF42
:1002B00003BC01F041F8000000BF0020FD490860C8
:1002C00008E04FF47A7001F008F8FA480068401C22
:1002D000F8490860F74800682828F2DB16E00A2190
:1002E00008460CF09AFDF44908800888C11700EB15
:1002F00091718910F14A116010460168F0A00CF06C
:1003000033FEEE480168F0A000F0EFFDE7E700BF24
:100310000020E849086008E04FF47A7000F0DDFF43
:10032000E4480068401CE3490860E24800681E2871
:10033000F2DB15E0E548008800F4004080B1E348B6
:100340000088C0F30E00E24908800020E149E04A3D
:1003500012888854E0A00CF007FE0020DB490880DA
:10036000E8E700BF4FF47A7000F0B7FFDCA00CF0B4
:10037000FBFD10E00CF037FCC822DEA1DEA00CF083
:10038000DAFBE1A00CF0F0FD4FF4487000F0A5FF9F
:10039000E1A00CF0E9FD1422D6A1E3A00CF0CBFB08
:1003A0000028E7D1E1A00CF0DFFD00BF1422D1A1AD
:1003B000E5A00CF0C0FB0028F8D14FF47A7000F0F3
:1003C0008CFF3222CBA1E2A00CF0B5FB642000F040
:1003D00084FF1422C7A1E1A00CF0ADFB4FF47A70AA
:1003E00000F07BFF4FF47A7000F077FF4FF47A70E3
:1003F00000F073FFDBA00CF0B7FD6422BDA1E1A00B
:100400000CF099FBE9A00CF0AFFD4FF47A7000F00E
:1004100064FF4FF47A7000F060FF4FF47A7000F0E0
:100420005CFF1422B3A1E9A00CF085FB41F28830F7
:1004300000F053FFE8A00CF097FDC822ADA1EDA09D
:100440000CF079FBF5A00CF08FFD41F2883000F044
:1004500044FFC822A7A1F8A00CF06DFB4FF47A70FE
:1004600000F03BFF1422A3A1F7A00CF064FB08E00E
:100470004FF47A7000F031FF0A229EA1F5A00CF033
:1004800088FBF5E700BF0AE0F949FA4800680EF07A
:1004900001F9F84908604FF4FA7000F01EFFF3E725
:1004A0000EB500BF0FE0F4480068C043F349C1F83F
:1004B000880102A800214FF4FA730A46CDE9001022
:1004C00008460BF09CFBEEE70EB500BF19E00020DC
:1004D000EB49086002A80021C8230A46CDE90010B4
:1004E00008460BF08CFB0120E649C1F8A00102A8E8
:1004F00000214FF4FA730A46CDE9001008460BF0CC
:100500007EFBE4E730B58BB00446002500BF03F066
:100510008DF80AA809F001F80AAA0121084605F099
:1005200086F800BF00BF00BF03F0B8F9054600BF62
:1005300000BFD5480078401CD349087000BF00BFF9
:10054000284603F0AFF900BF00BF00BF0AA803218F
:1005500000220592CDE906210890104680210C2248
:10056000CA4BCDE90132CDE9031004200023AFF2DC
:10057000A702C7A10090C94809F0A6FB0AA8032159
:1005800000220592CDE906210890104680210C2218
:10059000C34BCDE90132CDE9031005200023AFF2B2
:1005A000FF02C0A10090C24809F08EFB0AA80321F7
:1005B00000220592CDE906210890104680210C22E8
:1005C000BC4BCDE90132CDE9031006200023AFF288
:1005D0004B12B9A10090BC4809F076FB0AA8032190
:1005E00000220592CDE906210890104680210C22B8
:1005F000B64BCDE90132CDE9031007200023AFF25D
:100600009D22B3A10090B54809F05EFB0AA8032122
:1006100000220592CDE906210890104680210C2287
:10062000AF4BCDE90132CDE9031008200023AFF232
:100630002132ACA10090AF4809F046FB0AA8032183
:1006400000220592CDE906210890104680210C2257
:10065000A94BCDE90132CDE9031007200023AFF209
:10066000A732A6A10090A94809F02EFB0AA9A84824
:100670000AF09FFE00BF00BF00BF03F00FF9054660
:1006800000BF00BF80480078401E7F4908700846C0
:10069000007868B99F48008800280ADD00BF00BFC5
:1006A000284603F0FFF800BF00BF05F0A8FB41E1BA
:1006B00039E131E1040000200A0000200C00002094
:1006C00025640D0A00000000232564002C00002092
:1006D000000000209022002025730D0A0000000079
:1006E0005374617274207769666920746573742E1F
:1006F0000D0A00004F4B000041542B4349504D4F11
:1007000044453D3000000000CEB4BCECB2E2B5BDC3
:10071000C4A3BFE921212100B3A2CAD4C1ACBDD377
:10072000C4A3BFE92E2E2E0041540000576966690C
:10073000206D6F64756C6520697320636F6E6E65E4
:10074000637465642E0D0A004154453000000000BA
:1007500041542B43574D4F44453D310041542B529A
:1007600053540000537461727420746F20636F6E71
:100770006E65637420746F20486F7473706F742E8D
:100780000D0A000041542B43574A41503D22446119
:100790007461436F6C6C6563746F72222C22313309
:1007A00035373932343638302200000046696E69F8
:1007B000736820746F20636F6E6E65637420746F4E
:1007C00020486F7473706F742E0D0A0041542B43D0
:1007D00049504D55583D3000537461727420636F19
:1007E0006E6E65637420746F207365727665722E09
:1007F0000D0A000041542B43495053544152543D7B
:1008000022544350222C223139322E3136382E38A0
:100810002E313030222C31303038360046696E6946
:10082000736820636F6E6E65637420746F207365E8
:10083000727665722E0D0A0041542B4349504D4F7C
:1008400044453D310000000041542B43495053457D
:100850004E440000546869732069732066726F6D9E
:100860002045535038323636313239383031320043
:100870000AD7233C140000208881224200802242B3
:10088000A001214200002142C8000020B80A002037
:100890006C656430207461736B000000F409002003
:1008A0007C0D00206C656431207461736B00000066
:1008B000B80C002040100020666C6F6174207465D5
:1008C0007374207461736B007C0F0020041300208C
:1008D00057696669207461736B0000004012002044
:1008E000C8150020576966692047657420746173D4
:1008F0006B000000041500208C1800204865617210
:100900007420476574207461736B0000C817002061
:10091000300100208C00002000BF00BF284602F0FC
:10092000C1FF00BF06E000BF00BF284602F0BAFFCB
:1009300000BF00BF00BF0BB030BD8AB0002400F084
:1009400073FC4FF4A06000F0BDFD4FF4E13000F007
:1009500001FD4FF4E13000F051FA00F09FF90CF086
:1009600003FA09A804F034FC00BF00BF00BF02F086
:1009700095FF044600BF00BF3B480078401C3A4941
:10098000087000BF00BF204602F08CFF00BF00BF10
:1009900000BF09A8032100220592CDE90621089095
:1009A00010464FF400713322304BCDE90132CDE9CE
:1009B000031003200023AFF2B3422DA100902F4873
:1009C00009F082F900BF00BF00BF02F067FF0446D4
:1009D00000BF00BF24480078401E23490870084625
:1009E0000078A0B926480088002809DD00BF00BFB4
:1009F000204602F057FF00BF00BF05F000FA0DE0EF
:100A000000BF00BF204602F04DFF00BF06E000BF60
:100A100000BF204602F046FF00BF00BF00BF09A88C
:100A200004F0A5FE00BFFEE700BF1CE015480088EB
:100A300000F40040B8B113480088C0F30E0012491A
:100A4000088000201149104A128888540A22AFF207
:100A50005C310E480CF09DF80C490DA000F089FBAC
:100A6000002008490880E1E7C8000020F4010020C8
:100A70007374617274207461736B00003001002024
:100A80008C0000202E00002008000020902A00206A
:100A900044657669636520446174613A2025730D6D
:100AA0000A000000704700BFFEE700BFFEE700BF7E
:100AB000FEE700BFFEE77047704700000CB500205E
:100AC000019000906C48006840F480306A490860EA
:100AD00000BF6948006800F4003000900198401C95
:100AE0000190009818B90198B0F5A06FF1D1624853
:100AF000006800F4003010B10120009001E00020F7
:100B000000900098012843D15C48006840F0100034
:100B10005A4908600846006820F00300086008464B
:100B2000006840F00200086053484068524948603D
:100B30000846406848600846406840F48060486065
:100B40000846406820F47C1048600846406840F43D
:100B5000E81048600846006840F08070086000BFF8
:100B60004548006800F000700028F9D0424840680D
:100B700020F00300404948600846406840F0020009
:100B8000486000BF3C48406800F00C000828F9D1DC
:100B90000CBD10B5FFF792FF10BD10B536480068C8
:100BA00040F0010034490860084640683449084074
:100BB0003149486008460068324908402E490860BB
:100BC0000846006820F4802008600846406820F449
:100BD000FE0048604FF41F008860FFF7DAFF4FF017
:100BE00000602949086010BD10B5002100200022D6
:100BF000214B5B6803F00C0121B1042906D00829C0
:100C000028D107E0214B224C236027E01F4B204CCA
:100C1000236023E0184B5B6803F47010164B5B688D
:100C200003F48032022303EB904022B9194B434373
:100C3000174C23600DE0104B5B6803F4003323B1C5
:100C4000144B4343124C236003E0104B4343104CBE
:100C5000236003E00D4B0E4C236000BF00BF064B2A
:100C60005B68C3F303130C4CE15C094B1B68CB407E
:100C7000074C236010BD000000100240002002401D
:100C80000000FFF8FFFFF6FE08ED00E000127A001A
:100C90001800002000093D001C00002008B50121BB
:100CA000242001F09DF94FF48070ADF80000102071
:100CB0008DF8030003208DF802006946094800F012
:100CC000CFFC4FF48071074800F077FD0420ADF8A9
:100CD00000006946044800F0C3FC0421024800F00B
:100CE0006CFD08BD000801400014014010B5044629
:100CF00044B10021954802F0C5F90121934801F063
:100D00002DFF03E00021914801F028FF10BD10B530
:100D100040F225518E4800F0B1FF08B38C4800F036
:100D20002DFFC4B28B480088B0F5806F12DA002125
:100D3000864802F0A7F98748008810B90120FFF71C
:100D4000D5FF844801880088401C824A1080824870
:100D5000445405E07F48008840F400407D49088005
:100D600010BD7FB505460C460121042001F045F970
:100D7000ADF80450ADF800400020ADF80600ADF825
:100D800002006946714801F08DFB012211466F484F
:100D900001F0FFFE1E208DF80C0001208DF80D00E3
:100DA00002208DF80E0001208DF80F0003A800F03E
:100DB0008EFB7FBD70B58CB006460C4615460121F2
:100DC000084601F000F9304601F06EF901940295F1
:100DD00010200390002004900590802006900020B1
:100DE0000790089009904FF480500A9000200B90D3
:100DF00001A9304601F0FAF90CB070BD10B586B00B
:100E000004460121042001F0EBF80121480401F01F
:100E1000F4F84F4800F072FD0420ADF810000320F4
:100E20008DF8120018208DF8130004A94B4800F02B
:100E300017FC0820ADF8100004208DF8130004A959
:100E4000464800F00DFC00940020ADF80400ADF819
:100E50000600ADF80800ADF80C000C20ADF80A0053
:100E600069463B4800F08DFD01228021384800F0A2
:100E700045FE3B4A3649091D3A48FFF79BFF0121D1
:100E8000334800F00AFE012240F22551304800F0BC
:100E900010FE26208DF8140002208DF81500032086
:100EA0008DF8160001208DF8170005A800F00FFB43
:100EB00041F61F4140F2E730FFF753FF002025497C
:100EC0000880FFF713FF06B010BD70B504460D464D
:100ED0000021204601F0B5F92946204601F0C6F967
:100EE0000121204601F0ADF970BD0FB438B505A859
:100EF00000901B48009A04990CF024F80020009000
:100F000000BF184801F0B4F90028FAD114480CF0D9
:100F100089F9C4B221461348FFF7D7FF38BC5DF802
:100F200014FB10B50121094802F0E1F860B109484D
:100F3000008840F40040074908800121034802F07E
:100F4000E7F80020FFF7D2FE10BD000000080040C7
:100F5000004400402C0000209022002000080140A6
:100F6000901E00208000024010B504464CB10021C4
:100F70004FF0804002F086F80121880701F0EEFD75
:100F800004E000214FF0804001F0E8FD10BD10B5F5
:100F900040F225518F4800F071FE10B38D4800F0EB
:100FA000EDFDC4B28C480088B0F5806F13DA0021E3
:100FB0004FF0804002F066F88748008810B90120A1
:100FC000FFF7D2FF844801880088401C824A1080C5
:100FD0008248445405E08048008840F400407E493F
:100FE000088010BD7FB505460C460121084601F07A
:100FF00004F8ADF80450ADF800400020ADF806004C
:10100000ADF8020069464FF0804001F04BFA012232
:101010001146900701F0BDFD1C208DF80C00012049
:101020008DF80D0002208DF80E0001208DF80F00C4
:1010300003A800F04CFA7FBD70B58CB006460C4694
:1010400015460121084600F0BEFF304601F02CF89D
:1010500001940295102003900020049005908020B8
:10106000069000200790089009904FF480500A9055
:1010700000200B9001A9304601F0B8F80CB070BD0B
:1010800010B586B004460121082000F0A9FF012117
:10109000880400F0B2FF4F4800F030FC4FF40060CD
:1010A000ADF8100004208DF8130004A94C4800F09E
:1010B000D7FA4FF48060ADF8100003208DF81200CD
:1010C00018208DF8130004A9454800F0C9FA0094CF
:1010D0000020ADF80400ADF80600ADF80800ADF84A
:1010E0000C000C20ADF80A0069463A4800F049FCB3
:1010F00001228021374800F001FD3A4A3549091D97
:101100003948FFF799FF0121324800F0C6FC01225F
:1011100040F225512F4800F0CCFC27208DF8140018
:1011200002208DF8150003208DF8160001208DF89F
:10113000170005A800F0CBF941F61F4140F2E73057
:10114000FFF750FF002024490880FFF70DFF06B08D
:1011500010BD70B504460D460021204601F071F81F
:101160002946204601F082F80121204601F069F865
:1011700070BD0FB438B505A800901A48009A0499BC
:101180000BF0E0FE0020009000BF174801F070F85F
:101190000028FAD113480CF045F8C4B22146124891
:1011A000FFF7D7FF38BC5DF814FB10B501218807A5
:1011B00001F09DFF60B10848008840F400400649F6
:1011C00008800121880701F0A3FF0020FFF7CCFE73
:1011D00010BD0000004800402E000020902A002092
:1011E000000C0140902600201C00024008B5684613
:1011F00004F042F908BD08B5684604F087F908BD57
:1012000038B504466A46082120460AF073FC38BD0A
:1012100010B542480078012805D104F06FF80AF0B3
:10122000F5FE04F07CF810BD10B56FF0040000F07E
:1012300098F93B4800683B49B0FBF1F03A49087027
:10124000374800683749B0FBF1F438480068C910E6
:10125000B1FBF0F04443354800684FF47A71B1FBBC
:10126000F0F0334908804FF0E020006940F00200C0
:101270004FF0E021086108464461006940F0010038
:10128000086110BD2DE9F047074600264FF0E02029
:10129000D0F814902448007807FB00F800BFFFF74F
:1012A000A5FF4FF0E020856911E04FF0E020846950
:1012B000AC420CD0AC4202D2281B064403E0A9EB9E
:1012C0000400284406442546464500D300E0ECE7E8
:1012D00000BFFFF790FFBDE8F08770B504460F48E8
:1012E0000078A0B11348007888B91148008884427A
:1012F00006DB0F48008894FBF0F52846FFF780FFD7
:101300000B48008894FBF0F100FB114084B24FF4CD
:101310007A7104FB01F0FFF7B5FF70BD810000207A
:101320001800002000127A0030000020D8EA0008DF
:10133000320000208000002000BF704700BF4D4AEF
:10134000128802F04002002AF9D0C2B2494B1B1D9C
:101350001A80704710B586B00446012144F204009B
:1013600000F03EFE434800F0C9FA4FF40070ADF8BB
:10137000140003208DF8160018208DF8170005A919
:101380003D4800F06DF94FF48060ADF81400042082
:101390008DF8170005A9384800F062F925208DF86E
:1013A000000003208DF801008DF8020001208DF867
:1013B0000300684600F08BF801940020ADF80800A7
:1013C000ADF80A00ADF80C00ADF810000C20ADF837
:1013D0000E0001A9274800F0D4FA012240F225515D
:1013E000244800F066FB0121224800F056FB06B0BD
:1013F00010BD10B503F082FF40F225511D4800F0EA
:101400003DFC10B31B4800F0B9FBC4B21B48008878
:1014100000F40040C8B91948008800F4804060B169
:101420000A2C03D000201549088020E013480088CA
:1014300040F400401149088019E00D2C06D10F48F6
:10144000008840F480400D49088010E00B48008877
:10145000C0F30D000A490C5408480088401C074995
:10146000088008460088C72801DD0020088003F0B6
:1014700056FF10BD00380140000801403800002030
:10148000902E00200948804709480047FEE7FEE704
:10149000FEE7FEE7FEE7FEE7FEE7FEE7FEE7FEE724
:1014A00004480549054A064B704700009B0B00089D
:1014B00031010008804F0020805900208051002019
:1014C0008051002031490143314A1160704770B5A5
:1014D000002100230F22C47804B32D4C246804F4A7
:1014E000E064C4F5E064210AC1F10403CA40447811
:1014F00004FA03F18478144021430901254C06784D
:10150000A155047804F01F050124AC4005786D1145
:10151000AD0005F1E025C5F8004109E0047804F0CC
:101520001F050124AC401C4D0678761145F8264075
:1015300070BD1A4A0A400243154B1B1F1A607047C0
:1015400039B1134A121D12680243114B1B1D1A6058
:1015500006E00F4A121D126882430D4B1B1D1A60D4
:101560007047042808D14FF0E021096941F00401D7
:101570004FF0E022116107E04FF0E021096921F00E
:1015800004014FF0E0221161704700000000FA05ED
:101590000CED00E000E400E080E100E080FFFF1FD0
:1015A00010B50446CC48844208D10121042000F043
:1015B00031FD0021042000F02DFD46E0C7488442A3
:1015C00008D10121082000F025FD0021082000F0AD
:1015D00021FD3AE0C248844208D10121102000F0E8
:1015E00019FD0021102000F015FD2EE0BD488442B9
:1015F00008D10121202000F00DFD0021202000F065
:1016000009FD22E0B848844208D10121402000F0C1
:1016100001FD0021402000F0FDFC16E0B3488442AB
:1016200008D10121802000F0F5FC0021802000F08D
:10163000F1FC0AE0AE48844207D10121801500F098
:10164000E9FC0021A01500F0E5FC10BD10B501215A
:10165000084600F0DFFC0021012000F0DBFC10BD9B
:101660002DE9F04102460025002600200023002439
:10167000002791F803C00CF00F0591F803C00CF09F
:10168000100CBCF1000F03D091F802C04CEA050524
:1016900091F800C0BCF1000F31D0146800202BE09D
:1016A0004FF0010C0CFA00F3B1F800C00CEA03068D
:1016B0009E4220D183004FF00F0C0CFA03F7BC437D
:1016C00005FA03FC4CEA040491F803C0BCF1280FAE
:1016D00006D14FF0010C0CFA00FCC2F814C00AE06D
:1016E00091F803C0BCF1480F05D14FF0010C0CFA82
:1016F00000FCC2F810C0401C0828D1D31460B1F817
:1017000000C0BCF1FF0F34DD546800202EE000F172
:10171000080C4FF0010808FA0CF3B1F800C00CEA0D
:1017200003069E4221D183004FF00F0C0CFA03F701
:10173000BC4305FA03FC4CEA040491F803C0BCF175
:10174000280F05D100F1080C08FA0CF8C2F8148033
:1017500091F803C0BCF1480F07D100F1080C4FF01D
:10176000010808FA0CF8C2F81080401C0828CED3F3
:101770005460BDE8F0814FF6FF7101800221817055
:101780000421C17070470246002093680B400BB1E2
:10179000012000E0002070470146886880B2704751
:1017A00002460020D3680B400BB1012000E000206E
:1017B00070470146C86880B2704701617047416157
:1017C00070470AB1016100E041617047C160704734
:1017D0004FF480320A438261816182618269826949
:1017E000704702460020434B18684FF6807318403C
:1017F00040EA021008433F4B186070473E49C861F9
:101800007047F0B50A46002300240021002500F0AF
:101810000046B6F1004F02D1364EF16901E0354E77
:101820007168C0F3034583B200F44016B6F5401F5B
:1018300008D121F070612F4E766826F070662D4F2A
:101840007E6012E000F48016B6F5801F06D10326F4
:1018500006FA05F4A14341F0706106E0460D360139
:1018600003FA06F6B14341F0706122B1460D36012C
:1018700003FA06F6314300F00046B6F1004F02D1FC
:101880001C4EF16101E01B4E7160F0BD30B50022CD
:101890008B071C0F0F2303FA04F2164B08338C102E
:1018A00053F824309343134C08348D1044F82530FA
:1018B00023468C1053F824308C07240F00FA04F4CC
:1018C00023430C4C08348D1044F8253030BD0A49B0
:1018D000DC3108607047000000080140000C014046
:1018E000001001400014014000180140001C01409C
:1018F00000200140000001400000204210B50446D5
:10190000FB48844209D10121880300F083FB0021B8
:101910004FF4804000F07EFB32E0F648844209D16B
:101920000121480400F083FB00214FF4003000F057
:101930007EFB25E0F048844209D10121880400F0B3
:1019400076FB00214FF4802000F071FB18E0EB489B
:10195000844209D10121C80400F069FB00214FF441
:10196000002000F064FB0BE0E548844208D101212F
:10197000080500F05CFB00214FF4801000F057FBDD
:1019800010BD2DE9F04786B005460E460024A2465C
:1019900000BFA1460027B08900B100BF2F462C8AA6
:1019A0004CF6FF700440F08804432C82AC894EF65C
:1019B000F3100440B0883189084371890843044317
:1019C000AC81AC8A4FF6FF400440B0890443AC823E
:1019D00001A800F098FAC648874202D1DDF810A0AD
:1019E00001E0DDF80CA0A88900F4004040B10AEB4A
:1019F000CA0000EB0A1031684900B0FBF1F807E0BB
:101A00000AEBCA0000EB0A1031688900B0FBF1F85C
:101A10006420B8FBF0F004012009642101FB108967
:101A2000A88900F4004040B1322000EBC900B0FBAF
:101A3000F1F000F00700044308E0322000EB091049
:101A40006421B0FBF1F000F00F0004432C8106B0DC
:101A5000BDE8F0874FF41651016000218180C180FC
:101A600001810C21418100218181704710B502461E
:101A70000020108A4FF2FF0318400B884C88234344
:101A80008C882343CC8823431843108210BD002147
:101A9000018041808180C180704721B1828942F4F8
:101AA0000052828104E082894DF6FF731A408281E0
:101AB0007047F0B50346002400260025002040F6BC
:101AC0006A17B94200D100BF1846C1F3421401F0B1
:101AD0001F06012707FA06F5012C01D10C3004E09E
:101AE000022C01D1103000E014301AB107682F43E6
:101AF000076002E00768AF430760F0BD1AB1838A50
:101B00000B43838202E0838A8B4383827047028A7D
:101B10004FF6F0731A400282028A0A43028270472B
:101B200082894FF2FF731A40828182890A4382813F
:101B3000704721B1828942F00202828104E08289E9
:101B40004FF6FD731A4082817047028A4FF6DF73A9
:101B50001A400282028A0A430282704721B1028A35
:101B600042F48042028204E0028A4BF6FF731A407C
:101B700002827047C1F3080282807047014688885C
:101B8000C0F308007047818941F0010181817047ED
:101B9000028BD2B20283028B42EA01220283704797
:101BA000028B02F47F420283028B0A430283704756
:101BB00021B1828A42F02002828204E0828A4FF6BA
:101BC000DF731A408282704721B1828A42F010028C
:101BD000828204E0828A4FF6EF731A408282704755
:101BE00021B1828A42F00802828204E0828A4FF6A2
:101BF000F7731A408282704721B1828942F4004211
:101C0000828103E08289C2F30E028281704721B192
:101C1000828A42F40062828204E0828A4FF2FF7379
:101C20001A4082827047828A4FF6FB731A40828282
:101C3000828A0A438282704721B1828A42F002027C
:101C4000828204E0828A4FF6FD731A4082827047D6
:101C500002460020B1F5007F00D100BF13880B4081
:101C60000BB1012000E00020704701F40072B2F5D2
:101C7000007F00D100BFCA430280704770B50246A2
:101C8000002400230025002040F66A16B14200D14E
:101C900000BFC1F3421501F01F03012606FA03F34A
:101CA000012D02D19689334006E0022D02D1168A19
:101CB000334001E0968A33400C12012606FA04F400
:101CC0001688344013B10CB1012000E0002070BD33
:101CD00010B50022002340F66A14A14200D100BFD3
:101CE0000A1201249440A3B2DC43048010BD00001A
:101CF000003801400044004000480040004C0040D3
:101D000000500040DF48006840F00100DD490860F5
:101D100008464068DC490840DA49486008460068DF
:101D2000DA490840D74908600846006820F4802056
:101D300008600846406820F4FE0048604FF41F0029
:101D400088607047CF49096821F48031CD4A11601D
:101D50001146096821F480211160B0F5803F03D05D
:101D6000B0F5802F0ED106E0C649096841F48031F4
:101D7000C44A116007E0C349096841F4A021C14A7F
:101D8000116000E000BF00BF704710B5014600229F
:101D9000002300204A11012A02D1BA4C236806E030
:101DA000022A02D1B74C236A01E0B64C636A01F003
:101DB0001F02012494401C400CB1012000E00020CF
:101DC00010BD38B5002000900024002500BF312050
:101DD000FFF7DBFF05460098401C00900098B0F527
:101DE000A06F01D0002DF2D03120FFF7CEFF08B157
:101DF000012400E00024204638BD01460020A14A0D
:101E0000106820F0F80040EAC10010607047A04957
:101E100008607047024600209A4B586820F47C10F6
:101E200042EA01031843974B586070479849086687
:101E3000704701460020934A506820F00300084391
:101E4000506070478F48406800F00C0070470146B2
:101E500000208C4A506820F0F00008435060704722
:101E600001460020874A506820F4E0600843506033
:101E7000704701460020834A506820F4605040EAD1
:101E8000C1005060704729B17E4A527A02437D4BAF
:101E90005A7204E07B4A527A82437A4B5A727047F4
:101EA0007B49D8310860704701460020754A506868
:101EB00020F440400843506070470021714A2032AE
:101EC0001170704A82F82010012802D004280AD12B
:101ED00004E001216B4A2032117005E00521694AB6
:101EE0002032117000E000BF00BF704769490860F0
:101EF00070476449096A0143624A11627047654943
:101F000044390860704730B50021002200240023C6
:101F10005C4D6D6805F00C0121B1042905D008293C
:101F200023D105E05C4D056022E05B4D05601FE0BC
:101F3000544D6D6805F47012524D6D6805F480348F
:101F4000022505EB92421CB9544D554305600BE048
:101F50004C4D6D6805F400351DB1504D554305607D
:101F600002E04D4D5543056002E04B4D056000BF5A
:101F700000BF444D6D6805F0F0010909484D6B5CE8
:101F80000568DD4045603F4D6D6805F4E061090A74
:101F9000434D6B5C4568DD4085603A4D6D6805F4E6
:101FA0006051C90A3E4D6B5C4568DD40C560354DEA
:101FB0006D6805F44041890B3A4D6B5CC568B5FB13
:101FC000F3F5056130BD29B12E4A526902432D4B0C
:101FD0005A6104E02B4A526982432A4B5A61704786
:101FE00029B1284A92690243264B9A6104E0254AA6
:101FF00092698243234B9A61704729B1214AD26981
:102000000243204BDA6104E01E4AD26982431D4B31
:10201000DA61704729B11B4AD2680243194BDA6072
:1020200004E0184AD2688243164BDA60704729B13F
:10203000144A12690243134B1A6104E0114A1269EF
:102040008243104B1A61704712494039086070474B
:102050000F49C86470470B49C87170470948406A06
:1020600040F0807007494862704701460020054AE9
:1020700092680A400AB1012000E00020704701493F
:1020800088727047001002400000FFF8FFFFF6FE64
:10209000000042428004424200127A0000093D00E2
:1020A0003A0000204A00002001684FF6FE721140FD
:1020B00001600021016041608160C1608D498842FA
:1020C00008D18C490839496841F00F01894A083A1A
:1020D00051608AE087491431884208D1854908391E
:1020E000496841F0F001834A083A51607DE0814936
:1020F0002831884208D17F490839496841F4706124
:102100007C4A083A516070E07A493C31884208D1F3
:1021100078490839496841F47041764A083A516073
:1021200063E074495031884208D1724908394968DE
:1021300041F470216F4A083A516056E06D496431AC
:10214000884208D16B490839496841F47001694AED
:10215000083A516049E067497831884208D16549B9
:102160000839496841F07061624A083A51603CE0C0
:102170006149884206D1011F096841F00F01021F21
:10218000116032E05C491431884208D15A49091F74
:10219000096841F0F001584A121F116025E05649C4
:1021A0002831884208D15449091F096841F47061F7
:1021B000514A121F116018E04F493C31884208D142
:1021C0004D49091F096841F470414B4A121F1160C3
:1021D0000BE049495031884207D14749091F096836
:1021E00041F47021444A121F1160704710B500225B
:1021F000026847F6F0739A430C6A8B6823430C69B4
:1022000023434C6923438C692343CC6923434C6AA1
:1022100023438C6A23431A430260CB6843600B68F4
:1022200083604B68C36010BD002101604160816024
:10223000C160016141618161C1610162416281628C
:10224000704721B1026842F00102026004E00268B6
:102250004FF6FE731A40026070471AB103680B43D1
:10226000036002E003688B4303607047416070477E
:102270000146486880B2704701460020002201F004
:1022800080531BB11C4B083B1A6802E0194B083BFA
:102290001A6802EA01030BB1012000E00020704738
:1022A00000F0805119B11449091F086002E011497A
:1022B00008394860704701460020002201F0805331
:1022C0001BB10D4B083B1A6802E00A4B083B1A6829
:1022D00002EA01030BB1012000E00020704700F08A
:1022E000805119B10449091F086002E00149083909
:1022F00048607047080002400804024010B50446D8
:10230000FE48844208D10121C014FFF783FE00215A
:10231000E014FFF77FFEC4E0B4F1804F08D1012143
:102320000846FFF784FE00210120FFF780FEB8E099
:10233000F348844208D101210220FFF778FE0021F2
:102340000220FFF774FEACE0EE48844208D1012180
:102350000420FFF76CFE00210420FFF768FEA0E0D8
:10236000E948844208D101210820FFF760FE0021DE
:102370000820FFF75CFE94E0E448844208D1012184
:102380001020FFF754FE00211020FFF750FE88E0D8
:10239000DF48844208D101212020FFF748FE0021B8
:1023A0002020FFF744FE7CE0DA48844208D1012176
:1023B0004014FFF72FFE00216014FFF72BFE70E0A2
:1023C000D548844209D10121C804FFF723FE00212A
:1023D0004FF40020FFF71EFE63E0D048844209D18D
:1023E00001210805FFF716FE00214FF48010FFF7CA
:1023F00011FE56E0CA48844209D101214805FFF781
:1024000009FE00214FF40010FFF704FE49E0C54823
:10241000844208D101214020FFF709FE002140201D
:10242000FFF705FE3DE0C048844208D1012180202D
:10243000FFF7FDFD00218020FFF7F9FD31E0BB48EB
:10244000844208D101218015FFF7F1FD0021A0157C
:10245000FFF7EDFD25E0B648844209D101210804CB
:10246000FFF7D8FD00214FF48030FFF7D3FD18E0CF
:10247000B048844209D101214804FFF7CBFD002177
:102480004FF40030FFF7C6FD0BE0AB48844208D1A3
:1024900001218804FFF7BEFD00214FF48020FFF7E3
:1024A000B9FD10BD00220288944B98420ED0994B82
:1024B00098420BD0B0F1804F08D0914B984205D094
:1024C000904B984202D0904B984204D14FF68F73B4
:1024D0001A404B881A438D4B984207D08C4B984238
:1024E00004D04FF6FF431A40CB881A4302808B88F2
:1024F00083850B880385814B98420BD0854B98428E
:1025000008D08B4B984205D08A4B984202D08A4B18
:10251000984201D10B7A038601238382704770B5FC
:10252000002400220023058C4FF6FE7635400584FA
:10253000028C8388048B4FF68F752C40B51E2C407F
:102540000D882C43751E2A400D892A434D882A4345
:102550006A4DA8420BD06F4DA84208D0744DA842D6
:1025600005D0744DA84202D0734DA84213D14FF646
:10257000F7752A404D892A434FF6FB752A408D880E
:102580002A434FF6FF652B404FF6FF552B408D89B0
:102590002B43CD892B4383800483CD888586028499
:1025A00070BD70B5002400220023058C4FF6EF7635
:1025B00035400584028C8388048B48F6FF752C40D7
:1025C0004FF6FF452C400D884FF6FF7606EA0525AD
:1025D0002C434FF6DF752A400D8906EA05152A437C
:1025E0004D8806EA05152A43444DA84202D0494DBC
:1025F000A8421DD14FF67F752A404D894FF6FF76D0
:1026000006EA05152A434FF6BF752A408D8806EA6B
:1026100005152A434FF6FF352B404FF2FF752B402F
:102620008D8906EA85052B43CD8906EA85052B436E
:1026300083800483CD880587028470BD70B5002433
:1026400000220023058C4FF6FF6635400584028C7E
:102650008388848B4FF68F752C404FF6FC752C4089
:102660000D882C434FF6FF552A400D894FF6FF7613
:1026700006EA05252A434D8806EA05252A431F4D0B
:10268000A84202D0234DA8421DD14FF2FF752A4027
:102690004D894FF6FF7606EA05252A434FF6FF35AA
:1026A0002A408D8806EA05252A434EF6FF752B4001
:1026B0004DF6FF752B408D8906EA05152B43CD8914
:1026C00006EA05152B4383808483CD8885870284A1
:1026D00070BD70B5002200230024058C4EF6FF76F5
:1026E00035400584038C8488828B48F6FF752A4028
:1026F0004FF6FF452A400D8820E00000002C0140E5
:102700000004004000080040000C004000100040A1
:102710000014004000340140004C014000500140D2
:102720000054014000180040001C00400020004000
:102730000040014000440140004801404FF6FF7650
:1027400006EA05252A434DF6FF752B400D8906EA5A
:1027500005352B434D8806EA05352B43FA4DA84233
:1027600002D0FA4DA84208D14BF6FF752C408D8956
:102770004FF6FF7606EA85152C4384808283CD8848
:10278000A0F84050038470BD828B4FF2FF331A4093
:102790008283828B4FF6FF7303EA01231A438283FD
:1027A0007047F0B50C461546002200210026078C24
:1027B0004EF6FF7C07EA0C070784828B018C4FF6EC
:1027C000FF7707EA043640F6FF473A404FF6FF77B7
:1027D00007EA05273A434FF6FF7707EA03373A43FC
:1027E000D94FB8420ED0D94FB8420BD0B0F1804F7C
:1027F00008D0D74FB84205D0D64FB84202D0D64FF6
:10280000B84206D14DF6FF77394046F48057394338
:1028100005E047F6FF57394044F480573943828337
:102820000184F0BD828B4FF6F3731A408283828B52
:102830000A4382837047F0B50C46154600220021FA
:102840000026078C4FF6FF6C07EA0C070784828B83
:10285000018C4FF6FF7707EA04264FF60C773A40D3
:102860004FF6FF7707EA03172F433A43B64FB842B4
:102870000ED0B64FB8420BD0B0F1804F08D0B44F55
:10288000B84205D0B34FB84202D0B34FB84206D1D8
:102890004FF6FF57394046F48077394305E04FF251
:1028A000FF57394044F48077394382830184F0BD77
:1028B000028B4FF2FF331A400283028B4FF6FF73F5
:1028C00003EA01231A4302837047F0B50C4615460C
:1028D000002200210026078C4FF6EF7C07EA0C0748
:1028E0000784028B018C4FF6FF7707EA041640F647
:1028F000FF473A404FF6FF7707EA03373A434FF670
:10290000FF7707EA05273A438F4FB8420ED08F4F23
:10291000B8420BD0B0F1804F08D08D4FB84205D0EF
:102920008C4FB84202D08C4FB84206D14FF6DF77B9
:10293000394046F01007394305E04FF65F773940DC
:1029400044F01007394302830184F0BD028B4FF637
:10295000F3731A400283028B0A4302837047F0B577
:102960000C46154600220021068C4FF6FE773E40AD
:102970000684028B018C4FF60C7632407E1C06EAF0
:1029800003162E433243704EB0420ED06F4EB0420B
:102990000BD0B0F1804F08D06D4EB04205D06D4ED7
:1029A000B04202D06C4EB04206D14FF6FD763140B7
:1029B00044F00106314305E04FF6F576314044F02E
:1029C0000106314302830184F0BD70B505460C4613
:1029D0005D4885420ED05D4885420BD0B5F1804FF1
:1029E00008D05B48854205D05A48854202D05A48F3
:1029F000854200D100E000BF208850B92389A28819
:102A000061882846FFF7ABFFE1882846FFF79EFF65
:102A100025E0208804280AD12389A28861882846D5
:102A2000FFF753FFE1882846FFF742FF17E02088B1
:102A300008280AD12389A28861882846FFF7FBFE6F
:102A4000E1882846FFF7EEFE09E02389A288618825
:102A50002846FFF7A6FEE1882846FFF795FE70BDE1
:102A60002DE9F04105460C4600260127608808B98B
:102A7000022600E00026A088012801D1022700E0FC
:102A800001272088A0B92389A28861882846FFF7FA
:102A900066FFE1882846FFF759FF23893A46314609
:102AA0002846FFF712FFE1882846FFF701FF13E0F1
:102AB0002389A28861882846FFF707FFE188284616
:102AC000FFF7F6FE23893A4631462846FFF747FFCF
:102AD000E1882846FFF73AFFBDE8F0810A884B8875
:102AE0001A438B881A43CB881A430B891A434B89A4
:102AF0001A438B891A43A0F8442070474FF6FF71A0
:102B0000818000210180C1804180017270470021D5
:102B1000018041808180C180018141818181C181A9
:102B20007047002101804180012181800021C18006
:102B3000018170470021018041808180C180018135
:102B40004181818170470000002C01400034014028
:102B50000004004000080040000C004021B1028841
:102B600042F00102028004E002884FF6FE731A4030
:102B70000280704731B1B0F8442042F40042A0F81E
:102B8000442005E0B0F84420C2F30E02A0F844202F
:102B900070471AB183890B43838102E083898B4399
:102BA000838170478182704741EA0203A0F8483070
:102BB00070471AB183890B43838102E083898B4379
:102BC0008381704701894FF6F87211400181704787
:102BD0000A46002101894FF68F7319401143018184
:102BE000704730B504460D4629462046FFF7F0FFF2
:102BF000208940F00700208130BD2DE9F0410446D6
:102C00000D4616461F46602D06D13B460122314631
:102C10002046FFF75AFE05E03B460122314620469A
:102C2000FFF79DFE29462046FFF7D2FF208940F09E
:102C300007002081BDE8F08130B50C4600210189F4
:102C4000C9B24FF6FF7505EA03251543254329430D
:102C5000018130BD2DE9F04105460E4617469846E4
:102C6000002443463A4631462846FFF7E5FF2C89C3
:102C70004FF6F870044044F007044FF68F7004409C
:102C800044F070042C81BDE8F081F0B504460D4697
:102C900016461F463B46324629462046FFF7CCFFE4
:102CA000208940F480402081F0BD018582827047F8
:102CB0000A46002101884FF68F73194011430180A5
:102CC0007047F0B50C4615461E4600210022002331
:102CD0000189028B038C4FF6F877394021434FF678
:102CE000FC473A4040F201173A434FF6DD773B404C
:102CF0004FF6FF7707EA06172F433B430181028314
:102D00000384F0BD0A460021018B4FF68F731940F2
:102D10001143018370470A460021018B48F6FF7377
:102D200019404FF6FF7303EA0223194301837047EA
:102D30000A460021818B4FF68F731940114381831E
:102D400070470A460021818B48F6FF7319404FF601
:102D5000FF7303EA022319438183704721B102887C
:102D600042F08002028004E002884FF67F731A402E
:102D70000280704721B1828842F00402828004E020
:102D800082884FF6FB731A408280704721B1828897
:102D900042F00802828004E082884FF6F7731A40FE
:102DA0008280704721B1828842F00102828004E073
:102DB00082884FF6FE731A40828070470A460021CF
:102DC000018B4FF6F77319401143018370470A4690
:102DD0000021018B4FF2FF7319404FF6FF7303EA96
:102DE00002231943018370470A460021818B4FF665
:102DF000F77319401143818370470A460021818B84
:102E00004FF2FF7319404FF6FF7303EA0223194391
:102E1000818370470A460021018B4FF6FB731940EE
:102E20001143018370470A460021018B4FF6FF339F
:102E300019404FF6FF7303EA0223194301837047D9
:102E40000A460021818B4FF6FB73194011438183A1
:102E500070470A460021818B4FF6FF3319404FF629
:102E6000FF7303EA02231943818370470A46002156
:102E7000018B4FF67F7319401143018370470A4657
:102E80000021018BC1F30E014FF6FF7303EA022309
:102E90001943018370470A460021818B4FF67F73E7
:102EA00019401143818370470A460021818BC1F389
:102EB0000E014FF6FF7303EA022319438183704723
:102EC0000A460021018C4FF6FD731940114301841D
:102ED00070470A460021018C4FF6F77319401143E1
:102EE000018470470A460021018C4FF6DF731940B8
:102EF0004FF6FF7303EA02131943018470470A4631
:102F00000021018C4FF67F7319404FF6FF7303EADF
:102F100002131943018470470A460021018C4FF6C1
:102F2000FF5319404FF6FF7303EA0223194301844C
:102F300070470A460021018C4FF2FF7319404FF68B
:102F4000FF7303EA02231943018470470A460021F4
:102F5000018C4DF6FF7319404FF6FF7303EA0233FD
:102F600019430184704730B5002301248C40A3B27B
:102F7000048C9C430484048C02FA01F5ADB22C430A
:102F8000048430BD30B5002304248C40A3B2048CEB
:102F90009C430484048C02FA01F5ADB22C430484F2
:102FA00030BD70B5034600200024184618300125B6
:102FB0008D40ACB21D8CA5431D8409B1082909D1EF
:102FC00000EB6100056825F0700505600568154394
:102FD00005600EE00D1FC5F34E052844056825F475
:102FE000E045056005684FF6FF7606EA02263543A0
:102FF000056070BD21B1028842F00202028004E047
:1030000002884FF6FD731A400280704721B1028892
:1030100042F00402028004E002884FF6FB731A407B
:103020000280704721B1828842F08002828004E0F1
:1030300082884FF67F731A408280704702884FF66D
:10304000F7731A40028002880A4302807047828820
:103050004FF68F731A40828082880A4382807047BD
:1030600002894FF6F8731A40028102890A430281ED
:10307000704702894FF67F731A40028102890A4322
:1030800002817047818470478185704781867047CF
:103090000187704781877047A0F840107047028809
:1030A0004FF6FF431A40028002880A4302807047AD
:1030B0000146888E70470146088F70470146888F09
:1030C00070470146B1F8400070470146888C704750
:1030D0000146088D704702460020138A0B400BB151
:1030E000012000E000207047CA430282704730B5DB
:1030F0000246002000230024158A05EA0103958971
:1031000005EA010413B10CB1012000E0002030BD3C
:10311000CA4302827047000010B50446FA48844250
:1031200008D101214015FEF775FF00216015FEF75B
:1031300071FF17E0F548844208D101210015FEF720
:1031400069FF00212015FEF765FF0BE0F04884427F
:1031500008D10121C803FEF75DFF00214FF40040B4
:10316000FEF758FF10BD30B502460020002350681E
:10317000E84C20400D790C6844EA05242043506057
:103180009068E54C2040D1E902542C434D7944EA43
:10319000450420439060D06A20F470000C7C641ECB
:1031A000E4B2234340EA0350D06230BD0021016005
:1031B000017141718160C16001210174704721B1C9
:1031C000826842F00102826003E0826822F001021C
:1031D0008260704721B1826842F48072826003E0AD
:1031E000826822F480728260704710B50023CBB2EF
:1031F0001AB144681C43446002E044689C43446044
:1032000010BD816841F008018160704701460020CF
:103210008A6802F008020AB1012000E0002070472D
:10322000816841F0040181607047014600208A688E
:1032300002F004020AB1012000E00020704721B131
:10324000826842F4A002826003E0826822F4A00255
:1032500082607047014600208A6802F480020AB149
:10326000012000E00020704710B50A46002100232D
:10327000416821F46041531E41EA4331416010BD71
:1032800021B1426842F40062426003E0426822F4E5
:10329000006242607047F0B504460D4600200021F0
:1032A000092D11DDE068A5F10A0606EB46070726A1
:1032B00006FA07F18843A5F10A0606EB460603FA6B
:1032C00006F10843E0600CE0206905EB450707269E
:1032D00006FA07F1884305EB450603FA06F10843B1
:1032E0002061072A0FDA606B561E06EB86071F2641
:1032F00006FA07F18843561E06EB860605FA06F124
:103300000843606322E00D2A0FDA206BD61F06EB1C
:1033100086071F2606FA07F18843D61F06EB8606A6
:1033200005FA06F10843206310E0E06AA2F10D06F9
:1033300006EB86071F2606FA07F18843A2F10D0661
:1033400006EB860605FA06F10843E062F0BD21B1FE
:10335000826842F48012826003E0826822F4801264
:10336000826070470146C86C80B2704766484C3036
:103370000068704721B1426842F48062426003E015
:10338000426822F480624260704721B1426842F490
:103390008052426003E0426822F4805242607047EB
:1033A0000A460021816821F4E041114381607047A1
:1033B00021B1826842F40042826003E0826822F414
:1033C00000428260704721B1826842F4021282603A
:1033D00003E0826822F402128260704701460020F6
:1033E0008A6802F400120AB1012000E00020704750
:1033F000F0B504461546002000220026092911DDFB
:10340000E068A1F10A0707EB470C072707FA0CF25F
:103410009043A1F10A0707EB470703FA07F21043AD
:10342000E0600CE0206901EB410C072707FA0CF281
:10343000904301EB410703FA07F210432061A06BB0
:10344000C0F30156EF1C06F1010CA7EB0C0707EBCC
:10345000870C1F2707FA0CF29043EF1C06F1010CB2
:10346000A7EB0C0707EB870701FA07F21043A063ED
:10347000F0BD10B50A4600210023816B21F44011F4
:10348000531E41EA0351816310BD08B50023009328
:103490000090009B0B440093009B1A6008BD08B588
:1034A000024600200090009201F12800009B184481
:1034B00000900098006880B208BD0A46002141686B
:1034C000164B194011434160704741628262704758
:1034D0000A460021416821F01F01114341607047F5
:1034E00040B109490831096841F40001064A08322F
:1034F000116007E004490831096821F40001024A1B
:10350000083211607047000000240140002801408B
:10351000003C0140FFFEF0FFFDF7F1FFFFFD3FFF24
:103520000246002013680B400BB1012000E0002090
:103530007047CA430260704770B5024600200023FE
:1035400000240B125568CEB205EA060415681D402A
:1035500015B10CB1012000E0002070BD00220A125C
:10356000D34303607047000000B585B06846FEF79E
:10357000CAFC019805B000BD10B5FFF7F5FF044681
:103580001748006840F08070154908600020154910
:1035900048600846006840F001000860204600F0DE
:1035A000B6F810BD0F49486870472DE9F0478246CC
:1035B000FFF7DAFF4FF0000980460B4A0023404630
:1035C000494609F048FC064632460B465046002163
:1035D00009F041FC04460D4620462946BDE8F08727
:1035E000FCED00E0001000E040420F0010B50024A8
:1035F00000BF00BF00F052F9044600BF00BF102119
:10360000A14800F0D2FA00BF00BF204600F04AF9FE
:1036100000BF00BF10BD10B5FFF7E8FF10BD10B52B
:1036200000209A490860FFF7A7FF10BD10B5FFF70B
:10363000F6FFFFF7F0FF10BD00BFFEE770B50546CF
:103640000C46002614B900BFFFF7F6FF15B90A2093
:10365000208070BD00BF00BF00F020F9064600BF0B
:1036600000BF10228849284600F056FF00BF00BF67
:10367000304600F017F900BF00BF0020208000BFD7
:10368000E7E72DE9F04105460C46002714B900BFD5
:10369000FFF7D2FF1DB90A202080BDE8F08110217C
:1036A000284600F021FF0646102E15D200BF00BFAD
:1036B00000F0F4F8074600BF00BF10222946724808
:1036C00000F02AFF00BF00BF384600F0EBF800BF53
:1036D00000BF0020208002E04FF47A70208000BFFD
:1036E000DBE710B5FFF75EFF0446204610BD7047CC
:1036F00000B5014611B900BFFFF79EFF634A10688D
:1037000008B1002201E04FF4FA620A8000BD5F496F
:103710000860704770B50546284600F0CAF80446B0
:10372000183C204670BD70B50546284600F0C1F82B
:103730000446103C204670BD70B50546284600F092
:10374000B8F8044600BF204670BD30B502460B46AF
:103750000024D2F1FF359C4126D24FF6FF74D2F1FE
:10376000FF359C410FD26FF07F44D2F1FF359C4171
:1037700003D2190E464C605C44E0190C444C645C66
:1037800004F108003EE0FF24D2F1FF359C4105D250
:10379000190A3F4C645C04F1100033E019463C4CBC
:1037A000645C04F118002DE04FF6FF750024AD1A9B
:1037B0009C4115D26FF07F450024AD1A9C4107D281
:1037C000140E44EA0321324C645C04F1200019E039
:1037D000140C44EA03412E4C645C04F1280011E00F
:1037E0000024D2F1FF059C4107D2140A44EA036188
:1037F000274C645C04F1300004E01146244C645C06
:1038000004F1380030BD70B504460CB9082070BD15
:10381000204600F051F805462846F8E770B5044602
:103820000CB9102070BD204600F046F80546284629
:10383000F8E770B504460CB9202070BD204600F0B2
:103840003BF805462846F8E72DE9F04304460D46C7
:10385000002184EA01006940084302D14020BDE80C
:10386000F083E243E843521C40F1000102EA0406FF
:1038700001EA050730463946FFF767FF8046C8F181
:103880003F094846EBE70000582F00205000002079
:10389000E0E8000872B6704762B67047EFF3108038
:1038A00072B6704780F31088704730BF704720BFF2
:1038B0007047B0FA80F0704790FAA0F0B0FA80F04C
:1038C000704790FAA0F070470146412903DB5A295E
:1038D00001DC012200E00022012A08D0612903DB7B
:1038E0007A2901DC012200E00022012A01D1012213
:1038F00000E00022104670470146412903DB5A29A7
:1039000001DC012200E00022012A08D0612903DB4A
:103910007A2901DC012200E00022012A01D10122E2
:1039200000E00022012A08D0302903DB392901DC1C
:10393000012200E00022012A01D1012200E0002240
:10394000104670470146612903DB7A2901DC012218
:1039500000E00022104670470146412903DB5A2946
:1039600001DC012200E000221046704701463029A8
:1039700003DB392901DC012200E0002210467047F8
:103980000146302903DB372901DC012200E0002257
:10399000104670470146302901DB392907DD4129EE
:1039A00001DB462903DD612903DB662901DC0122F5
:1039B00000E00022104670470146202901D0092965
:1039C00001D1012200E00022104670470146202963
:1039D00009D00D2907D00A2905D00C2903D00929BF
:1039E00001D00B2901D1012200E0002210467047CE
:1039F0000146202903DB7E2901DC012200E00022B0
:103A0000104670470146212903DB7E2901DC012293
:103A100000E00022104670470146202903DB7E2982
:103A200001DC012200E00022012A35D1202909D041
:103A30000D2907D00A2905D00C2903D0092901D066
:103A40000B2901D1012200E000222ABB412903DB1E
:103A50005A2901DC012200E00022012A08D0612954
:103A600003DB7A2901DC012200E00022012A01D1D6
:103A7000012200E00022012A08D0302903DB392985
:103A800001DC012200E00022012A01D1012200E034
:103A900000220AB9012200E00022104670470146C8
:103AA0004AB2002A01DB1F2901DD7F2901D1012251
:103AB00000E00022104670470146412903DB5A29E5
:103AC00001DC012200E00022012A02D101F12002E2
:103AD00000E00A46D0B270470146612903DB7A292B
:103AE00001DC012200E00022012A02D1A1F1200222
:103AF00000E00A46D0B27047F0B504460B462046B7
:103B0000FFF7EAFF05461846FFF7E6FF0646B5420F
:103B100001D1012000E0002007463846F0BD00003A
:103B2000FC48FD4901600146416000218160C1609F
:103B3000016141618161C16101620163C1624162F0
:103B4000F6498163C1634FF48061016441640146B9
:103B5000F34A116070472DE9F04105460B46944643
:103B60000027002402E03F021F43641C042CFAD308
:103B7000604605F00306294646B1344603E001F8E5
:103B8000013B401E641C08B1042CF8D30A4601E036
:103B900080C2001F0428FBD2114602E001F8013B5D
:103BA000401E0028FAD1BDE8F08130B505460C462C
:103BB000224600212846FFF7CEFF30BD2DE9F04F09
:103BC00085B007468846914646463D46AE4207D9EF
:103BD0004A464146384601F01DF905B0BDE8F08F70
:103BE0004C4607EB0900451E08EB0900461EA81BC2
:103BF00004900498042834D305F00300029006F0E2
:103C000003010191DDE90110884201D1012000E0AA
:103C1000002000900098012823D10298032810D09A
:103C2000029840B2039008E016F8010905F801096E
:103C3000641E0398401E40B2039014B103980028FC
:103C4000F2DAA5F1030AA6F1030B04E05BF804091C
:103C50004AF80409241F042CF8D20AF103050BF1D9
:103C6000030604E016F8010905F80109641E002C9A
:103C7000F8D100BFB1E72DE9F84F804689461546D7
:103C800015B90120BDE8F88FB8F1000F01D100206F
:103C9000F8E7B9F1000F01D10020F3E7012429462C
:103CA00008EB050209EB050302F0030C03F0030B1C
:103CB000DC4501D1012000E000200090009801289F
:103CC00029D1BCF1000F12D0E2460AE0521E5B1E61
:103CD000107893F800E0704500D00024491EAAF146
:103CE000010A012C03D111B1BAF1000FEED1012C60
:103CF00011D116461F4608E0361F3F1F3068D7F81F
:103D000000E0704500D00024091F012C01D10429D6
:103D1000F2D232463B4608E0521E5B1E107893F802
:103D200000E0704500D00024491E012C01D100297B
:103D3000F2D12046A6E7F0B503460E461546D96BEC
:103D4000B1FBF5F005FB101CBCF1000F02D0A5EB98
:103D50000C0200E000229419586CA04201D200200D
:103D6000F0BD0F191144DF63586C001B58640846FE
:103D7000F6E72DE9F04106460F46B6FBF3FC03FBE0
:103D80001C6109B15C1A00E00024B2FBF3FC03FBE8
:103D90001C2109B15D1A00E0002502EB0508A7F11E
:103DA000010C08FB0C4C0CEB0200BDE8F0812DE986
:103DB000FE4F8046894614461E46002000900CB9EE
:103DC00001AC00BF00202060524F00BF00BFFFF7D2
:103DD00065FD009000BF00BFF86B0290D7F844B0BB
:103DE0004B46424601210298FFF7C3FF05465D4559
:103DF0000FD900BF00BF0098FFF754FD00BF00BF00
:103E0000A5EB0B00206042F2E27030800020BDE89C
:103E1000FE8F4A4641463846FFF78DFF8246BAF18B
:103E2000000F0CD100BF00BF0098FFF73BFD00BFA3
:103E300000BF256042F2E27030800020E7E700BF5B
:103E400000BF0098FFF72EFD00BF00BF42F21070C8
:103E500030805046DBE72DE9FC5F07460C46904674
:103E60000020009000BF00BFFFF718FD009000BFCA
:103E700000BFD7F80490D9F8380008B1484600E0F0
:103E800024488246DAF84450DAF83CB000BF00BF5C
:103E90000098FFF707FD00BF00BF012C0AD9BBFB4C
:103EA000F4F004FB10B60EB1A01B00E0002001905E
:103EB00001982D1A42F21070A8F800002846BDE8BB
:103EC000FC9F70B504460D462A4621461148FFF76F
:103ED000C2FF0646304670BD18B942F211720A8020
:103EE0007047104A0260002242608260C260026134
:103EF00042618261C2610262826242630263C262A3
:103F000042628263C2630264426442F210720A80B7
:103F100000BFE5E7682F002048454150B02F002042
:103F2000540000204E4F4E452DE9FF4F91B00446FE
:103F3000DDE9208900200090B8F1000F02D10DF1D9
:103F4000180800BF0020C8F8000049462046FFF7C7
:103F5000C3FFB9F8000042F21071884202D015B0D8
:103F6000BDE8F08FFE48006820B942F2E770A9F87A
:103F70000000F4E7DFF8ECA30020059000BF00BFCD
:103F8000FFF78CFC009000BF00BF129880BB554625
:103F9000AB462E46DAF83C000D9004231A461499DD
:103FA0000D98FFF7E6FE049004990D9808440C90D4
:103FB000DDE91E2314990C98FFF7DBFE0390DDE981
:103FC000030108440590DAF844700598B8427DD999
:103FD00000BF00BF0098FFF765FC00BF00BF059859
:103FE000C01BC8F8000042F2E270A9F80000B6E772
:103FF000FFE712980B90DDE912010844401E0A9079
:104000000025AB46D64806683BE0B16B129881426A
:1040100005D1316C1398814201D1354633E0B06B44
:104020000990316CB06B0844401E0890DDE909012D
:10403000814200D227E009990B98884203D8DDE934
:10404000091088420FD209990B98884203D3089926
:104050000A98884207D908990B9888420FD808997E
:104060000A9888420BD300BF00BF0098FFF71AFCE4
:1040700000BF00BF42F27F70A9F800006FE7B346AF
:10408000F668002EC1D100BF45B925461298A0633D
:104090001298E0631398206413986064DAF83C0087
:1040A0000D9004231A4614990D98FFF762FE0490B0
:1040B000DAF844700498B84211D900BF00BF0098E4
:1040C000FFF7F0FB00BF00BF049800E024E0C01B36
:1040D000C8F8000042F2E270A9F800003FE7E86B80
:1040E0000C90DDE91E2314990C98FFF742FE039013
:1040F0006F6C0398B8420FD900BF00BF0098FFF75C
:10410000D1FB00BF00BF0398C01BC8F8000042F2FB
:10411000D870A9F8000022E71498800002900422C9
:1041200050460299FFF707FE0F900F9830BBDAF860
:10413000447000BF00BF0098FFF7B4FB00BF00BF92
:10414000129858B90598B84204D90598C01BC8F808
:1041500000000EE00598C8F800000AE00298B84296
:1041600004D90298C01BC8F8000002E00298C8F801
:10417000000042F2E270A9F80000F0E60020019091
:1041800034E02846DDE91E12FFF7D5FD0E900E98AB
:1041900020BBE86B0C906F6C00BF00BF0098FFF76E
:1041A00081FB00BF00BF01991498401A0790DDE918
:1041B0001E2307990C98FFF7DCFD05900598B8427F
:1041C00004D90598C01BC8F8000002E00598C8F89B
:1041D000000042F2D870A9F80000C0E6019ADDE9BB
:1041E0000E0141F822000198401C01901499019899
:1041F0008842C6D3A5420DD1C4F808B0E660BBF131
:10420000000F02D0CBF80C4001E0554804605EB1CD
:10421000B46009E0686910902561109860616C6174
:10422000109808B1109804614F48206065600C98A0
:10423000A06103990C980844401EE0610F98206229
:104240000398A0621F9860631E9820631498E06230
:104250001498606200BF00BF0098FFF723FB00BF07
:1042600000BF42F21070A9F8000000BF77E62DE908
:10427000F04104460D46002700BF00BFFFF70EFBCC
:10428000074600BF00BF666A00BF00BF3846FFF7A1
:1042900009FB00BF00BF42F2107028803046BDE825
:1042A000F0812DE9F041044688461546002700BFFD
:1042B00000BFFFF7F3FA074600BF00BF606A60B9AE
:1042C00000BF00BF3846FFF7EDFA00BF00BF42F263
:1042D000DE7028800020BDE8F081E16A606A8842D3
:1042E0000BD900BF00BF3846FFF7DCFA00BF00BFA4
:1042F00042F2957028800020EDE7606A401E6062FF
:10430000D4E9080150F8216000BF00BF3846FFF72C
:10431000C9FA00BF00BF42F2107028803046DAE7C9
:104320002DE9F04704460F4615464FF0000900BF3F
:1043300000BFFFF7B3FA814600BF00BFE06AC01BB1
:10434000461EE06AB04213D800BF00BF4846FFF7E0
:10435000A9FA00BF00BF42F295702880002005E056
:1043600054000020682F0020504F4F4CBDE8F087CC
:10437000606AB0420BD900BF00BF4846FFF792FA0F
:1043800000BF00BF42F2957028800020E7E7206A56
:1043900050F8268000BF00BF4846FFF783FA00BFF1
:1043A00000BF42F2107028804046D8E72DE9F04760
:1043B00004460E4617464FF0000A00BF00BFFFF745
:1043C0006DFA824600BF00BFE16A606A88420BD383
:1043D00000BF00BF5046FFF765FA00BF00BF42F2C2
:1043E000DD703880BDE8F0874FF00008656A08E0AE
:1043F000206A50F82590B14502D14FF0010803E042
:104400006D1CE06AA842F3D800BFB8F1010F06D1D5
:10441000D4E9080150F82100216A41F82500D4E9C7
:10442000080140F82160606A401C606200BF00BF64
:104430005046FFF737FA00BF00BF42F210703880D5
:1044400000BFCFE72DE9F84F04460F46164600207F
:1044500000904FF0FF3B00BF00BFFFF71FFA009036
:1044600000BF00BFE16A606A88420CD300BF00BF92
:104470000098FFF717FA00BF00BF42F2DD703080EE
:104480005846BDE8F88F4FF00009656A08E0206AD9
:1044900050F82580B84502D14FF0010903E06D1CAA
:1044A000E06AA842F3D800BFB9F1010F0FD1E06A6A
:1044B000401EA0EB050A00BF00BF0098FFF7F2F90D
:1044C00000BF00BF42F2107030805046D9E700BFF5
:1044D00000BF0098FFF7E6F900BF00BF42F2887006
:1044E00030805846CDE7000010B502460B46114615
:1044F000002001E0491C401C19B10C780CB1984215
:10450000F8D310BD30B504464FF0FF312046FFF719
:10451000EBFF0546284630BD70B504460D461646ED
:104520000CB9002070BD0DB90020FBE721462A46DA
:10453000002304E010780870491C521C5B1C21B158
:104540001AB1107808B1B342F4D301B10AB900200E
:10455000E8E7B34201D2002008702046E2E770B5D8
:1045600004460D464FF0FF3229462046FFF7D4FFA0
:104570000646304670BD70B503460C4615460BB96D
:10458000002070BD0CB90020FBE70DB91846F8E714
:10459000194600E0491C11B108780028FAD109B980
:1045A0000020EEE72246002604E010780870491C3F
:1045B000521C761C21B11AB1107808B1AE42F4D366
:1045C00001B10AB90020DCE7002008701846D8E7DE
:1045D00070B504460D464FF0FF3229462046FFF7DE
:1045E000CAFF0646304670BD2DE9F04305460B462E
:1045F0009446BCF1000F02D10020BDE8F08335B92C
:104600000BB90020F9E7187842421046F5E713B9D4
:104610002A781046F1E729461C460F4626467F1C9D
:10462000761C4FF0000805E0491C641C7F1C761CBA
:1046300008F10108087894F80090484505D10878F9
:1046400018B117B10EB1E045EED3E04501D100201D
:10465000D3E7087894F80090484505D0087894F896
:104660000090A0EB09020BE0087808B9002207E0EF
:104670002FB90EB9002203E03078424200E03A78C8
:104680001046BAE770B504460D464FF0FF32294692
:104690002046FFF7A9FF0646304670BD2DE9F74FCB
:1046A00082B080460E46049818B9002005B0BDE8D7
:1046B000F08FB8F1000F09D10EB90020F6E730787D
:1046C000FFF7FAF907467C422046EFE73EB998F833
:1046D0000000FFF7F1F905462C462046E6E7C14603
:1046E000B246C846C3465646CDF804A0D8460BF19C
:1046F000010B019E701C0190C84699F80000FFF75D
:10470000DBF9054656469AF80000FFF7D5F907464B
:104710000020009015E009F101090AF1010A0BF1EE
:10472000010B0198401C01900098401C009099F8E2
:104730000000FFF7C1F905469AF80000FFF7BCF941
:104740000746BD420BD199F8000040B1BBF1000F04
:1047500005D0019818B1049900988842DBD30499D8
:104760000098884201D10020A0E7BD4201D0EC1B97
:1047700016E00DB9002413E0BBF1000F0AD1019837
:1047800008B900240CE001990878FFF795F907466D
:104790007C4205E09BF80000FFF78EF905462C46A9
:1047A000204683E770B504460D464FF0FF32294698
:1047B0002046FFF773FF0646304670BD30B504460D
:1047C0000B4615460CB9002030BD0BB90020FBE7A5
:1047D0002146002201E0491C521C31B1087820B169
:1047E0000878A84201D09A42F5D309B90020EBE736
:1047F0009A4201D30020E7E70878A84201D00020C0
:10480000E2E70846E0E770B505460C4622464FF061
:10481000FF312846FFF7D2FF0646304670BD2DE92E
:10482000F04305460E46174615B90020BDE8F08353
:104830000EB90020FAE72C46A6F1010949462046A8
:10484000FFF752FE804644440CB90020EEE700E03A
:10485000641EAC4202D02078B842F9D12078B84228
:1048600001D00020E2E72046E0E770B505460C469F
:1048700022464FF0FF312846FFF7D1FF064630466B
:1048800070BD70B504460D4616460CB9002070BDCB
:104890000BB90020FBE721461A4605E00878A8423C
:1048A00000D10E70491C521E19B1087808B1002AB7
:1048B000F4D12046EBE7F0B504460D4616464FF01E
:1048C000FF33324629462046FFF7DBFF07463846CE
:1048D000F0BD2DE9FF4F06460F4615461EB90020D4
:1048E00004B0BDE8F08F0FB90020F9E70DB9002042
:1048F000F6E7681C00B101E04FF0FF300390294655
:104900003046FFF7F1FD804638460399FFF7ECFD8E
:1049100004460CB93046E3E7444501D90020DFE7FF
:1049200006EB080BBBF1000F01D10020D8E707EB25
:10493000040BBBF1000F01D10020D1E7A8EB04006C
:1049400002904FF000090020019000BF06EB090023
:104950000090224639460098FFF746FE8246BAF19B
:10496000000F01D1012000E00020019009F10109B0
:10497000019810B902988145E8D9BAF1000F01D029
:104980000020ADE70098ABE770B504460D464FF048
:10499000FF3229462046FFF79CFF0646304670BD91
:1049A0002DE9FF4F8DB00F4615461A9E1D9818B978
:1049B000002011B0BDE8F08F002003900490012F7B
:1049C00001DA01200390022D01D3242D01D9012009
:1049D000039096B33046FFF70BF802900298012837
:1049E00002D00120039028E0302E26D0A6F130001E
:1049F000C0B207901B98012804D0A6F14100C0B2B4
:104A0000069003E0A6F16100C0B206900A2D02D81C
:104A10000798A84209DB0A2D09D907980A2804D368
:104A2000A5F10A000699884201D9012000E0002082
:104A300005900598012800D103901D9C039800283B
:104A400046D1DDF834A0DDF834A0CDF830A0012047
:104A50000B9007E00B98401CC0B20B900C98B0FB79
:104A6000F5F00C900C98A842F4D21098012800D1CF
:104A700000E0002009900B9909980844B84225DC11
:104A8000002001900B98B84201DA0B9800E03846FC
:104A90000A903EB1B8460A98391A0998081AC0B265
:104AA000089006E0DDE90910084400F0FF08002046
:104AB00008900898002806DD302E01D1012000E082
:104AC0000020049004E00020049001E00120039005
:104AD000039800B1B84644441C9808B100202070E7
:104AE000641E4FF0000941E00398A8BBBAF1000F23
:104AF00002D1B9F1000F1CD1BAFBF5F005FB10A0F3
:104B000000F0FF0BBBF10A0F04D20BF1300004F8E8
:104B100001090BE01B98012804D00BF1370004F8C1
:104B2000010903E00BF1570004F80109BAFBF5FA9B
:104B30001AE01098012810D1049808B9019828B1FA
:104B4000049850B1A8F10100484506D12D2004F881
:104B500001090120019007E003E02EB104F801698A
:104B600002E03F2004F8010909F10109C145BBD366
:104B7000039808B100201CE71D981AE72DE9FF5F94
:104B800005460E4617461C46DDE90F9ADDF83880CB
:104B900000233A46314628468DE81007FFF700FF0C
:104BA0008346584604B0BDE8F09F2DE9FF4F85B01D
:104BB000044689461F46DDE913AB002C02DA654244
:104BC000012601E02546002612983346CDE902ABC6
:104BD000CDE9007049462846079AFFF7E1FE804676
:104BE000404609B0BDE8F08F2DE9FF4F8BB0064677
:104BF00089461546B9F1000F02D10DF1240900BF15
:104C0000C9F80060189810B907A8189000BF0021D3
:104C1000189801701EB900200FB0BDE8F08F012D6B
:104C200001D0242D01D90020F6E734462078FEF784
:104C3000CDFE039004E0641C2078FEF7C7FE0390CD
:104C400003980128F7D020782B2802D02D280BD1EB
:104C500003E0641C4FF0000B09E00E98012800D11E
:104C6000641C4FF0010B02E04FF0000B00BF00BFCF
:104C70000A9425B1082D1CD0102D36D11EE02078C5
:104C8000302814D1641C2078582802D078280BD101
:104C900000BF102567783846FEF77CFE8246BAF1E1
:104CA000010F00D1641C01E0082500BF00E00A25C7
:104CB0001CE02078302800D1641C17E020783028D0
:104CC00012D1641C2078582802D078280AD100BF5D
:104CD00067783846FEF75EFE8246BAF1010F00D1D2
:104CE000641C00E000BF00BF00E000BF00BF4FF049
:104CF000000800200290019040E027783846FEF737
:104D0000FBFD05900598012836D13846FEF72EFEAA
:104D100006900698012804D1A7F13000C0B208908F
:104D20000FE03846FEF70EFE04900498012804D1E7
:104D3000A7F15700C0B2089003E0A7F13700C0B256
:104D400008900898A84214DA029880B9304850F8C0
:104D50002500404509D308FB05F8089880440898C9
:104D6000804504D20120029001E001200290641CE1
:104D700004E00120019001E0012001900198002849
:104D8000BBD00298012801D14FF0FF380A98844225
:104D900002D0C9F8004001E0C9F80060189880F816
:104DA00000B0404638E7F8B504460D4616460020E8
:104DB00003463246294600902046FFF715FF074676
:104DC0003846F8BD2DE9FC4105460E46174601A8B8
:104DD00001233A46314600902846FFF705FF044676
:104DE0009DF8040040B9B4F1004F02D36FF00040C9
:104DF00000E02046804607E0B4F1004F02D34FF0B8
:104E0000004000E0604280464046BDE8FC81000072
:104E1000E4E90008002800D17047002900D170475C
:104E2000002A00D170472DE9F81F00F0030301F0BC
:104E30000304A34211D1C3F1040303F00303012BC4
:104E40001DD3012A00D2F2E011F8014B00F8014B0A
:104E5000A3F10103A2F10102F1E700F0010301F067
:104E60000104A34200D094E0012B44D311F8014B7C
:104E700000F8014BA3F10103A2F10102F4E7B2F53E
:104E8000B47F26D3B1E8F81FA0E8F81FB1E8F81FF7
:104E9000A0E8F81FB1E8F81FA0E8F81FB1E8F81F74
:104EA000A0E8F81FB1E8F81FA0E8F81FB1E8F81F64
:104EB000A0E8F81FB1E8F81FA0E8F81FB1E8F81F54
:104EC000A0E8F81FB1E8F81FA0E8F81FA2F5B47237
:104ED000D5E7282A06D3B1E8F81FA0E8F81FA2F109
:104EE0002802F6E7042A06D351F8043B40F8043BB5
:104EF000A2F10402F6E7202A42D331F8023B20F85F
:104F0000023B31F8023B20F8023B31F8023B20F82B
:104F1000023B31F8023B20F8023B31F8023B20F81B
:104F2000023B31F8023B20F8023B31F8023B20F80B
:104F3000023B31F8023B20F8023B31F8023B20F8FB
:104F4000023B31F8023B20F8023B31F8023B20F8EB
:104F5000023B31F8023B20F8023B31F8023B20F8DB
:104F6000023B31F8023B20F8023B31F8023B20F8CB
:104F7000023B31F8023B20F8023BA2F12002BAE7E3
:104F8000022A06D331F8023B20F8023BA2F10202CA
:104F9000F6E7102A42D311F8013B00F8013B11F863
:104FA000013B00F8013B11F8013B00F8013B11F80F
:104FB000013B00F8013B11F8013B00F8013B11F8FF
:104FC000013B00F8013B11F8013B00F8013B11F8EF
:104FD000013B00F8013B11F8013B00F8013B11F8DF
:104FE000013B00F8013B11F8013B00F8013B11F8CF
:104FF000013B00F8013B11F8013B00F8013B11F8BF
:10500000013B00F8013B11F8013B00F8013B11F8AE
:10501000013B00F8013BA2F11002BAE7012A06D3D6
:1050200011F8013B00F8013BA2F10102F6E7BDE8EF
:10503000F81F70471548164816481748174818486B
:105040001848194819481A481A481B481B481C4850
:105050001C481D481D481E481E481F481F48204820
:1050600020482148214822482248234823482448F0
:1050700024482548254826482648274827482848C0
:1050800028482948294800BF7047000018EB00084D
:1050900078EA00087CEA000880EA000884EA000850
:1050A00088EA00088CEA000890EA000894EA000800
:1050B00098EA00089CEA0008A0EA0008A4EA0008B0
:1050C000A8EA0008ACEA0008B0EA0008B4EA000860
:1050D000B8EA0008BCEA0008C0EA0008C4EA000810
:1050E000C8EA0008CCEA0008D0EA0008D4EA0008C0
:1050F000D8EA0008DCEA0008E0EA0008E4EA000870
:10510000E8EA0008ECEA0008F0EA0008F4EA00081F
:10511000F8EA0008FCEA000800EB000804EB0008CD
:1051200008EB00080CEB000810EB000814EB00087B
:10513000002400BF19E000BF00BFFEF7AFFB04462C
:1051400000BF00BFF7480068401CF6490860F648F9
:105150000068401CF449086000BF00BF2046FEF70D
:10516000A1FB00BF00BF07F083FBE4E710B58AB0E6
:1051700004460020EB4908600B2000210591CDE991
:10518000070406910846E9490968E94A1268E94BAB
:105190001B68CDE90132CDE903103F200023AFF2B7
:1051A0006F02E5A10090E94804F08EFD0AB010BD41
:1051B00000210AE001EB4102E54B03EB82000022F3
:1051C0000281026042604A1CD1B24029F2D370478A
:1051D00070B5044607F054FB0020DE490870DE4934
:1051E0000870DE490870DE490860DE490860DE4963
:1051F0000870DE490870DE490870DE490860DE4943
:105200000860DE490860DE490870DE4800680A214F
:10521000B0FBF1F0DC490860DC48006858B1DC48BC
:10522000056845B1D948066803E0761E002028606D
:105230002D1D002EF9D10020D6490860D6490860FE
:10524000D6490860D6490860D6490860D649086042
:10525000D6490860D649087003F016F8FFF7A8FF92
:10526000204601F03FFE208800B170BD204602F0CC
:105270007AF9208800B1F8E7204602F0A0F92088EA
:1052800000B1F2E7204602F0E7FF208800B1ECE72A
:10529000204603F093FC208800B1E6E7204604F0A6
:1052A000A9F8208800B1E0E7204606F07DF92088C3
:1052B00000B1DAE7204601F09AFF208800B1D4E778
:1052C0002046FFF753FF208800B1CEE7204606F0C6
:1052D000C2FA208800B1C8E7204604F044FB2088C9
:1052E00000B1C2E7204607F01EFA208800B1BCE7F3
:1052F00000F020FEFFF79EFE00BFB6E7964800785C
:10530000012800D0704793480078FA2800DBF9E7BD
:1053100090480078401C8F49087000BFF2E710B534
:1053200000248D480078012800D010BD00BFFEF792
:10533000B5FA044600BF8748007828B900BF204668
:10534000FEF7B0FA00BFF0E782480078401E8149BE
:10535000087008460078002805DD00BF2046FEF7EB
:10536000A1FA00BFE1E77D480078002805DD00BF15
:105370002046FEF797FA00BFD7E702F08FFF7B4980
:1053800008700846007800EB4000714951F8200091
:10539000744908600846006871490968884205D167
:1053A00000BF2046FEF77EFA00BFBEE76D480068EA
:1053B000D0F89000401C6B490968C1F890007D4806
:1053C0000068401C7B4908604FF080507A490860B3
:1053D00000BF2046FEF766FA00BF00BFA5E710B584
:1053E00000245C480078002800DD10BD5B48007890
:1053F000002800DDF9E700BFFEF750FA044600BFC1
:1054000002F04CFF594908700846007800EB400054
:105410004F4951F820005349086008460068504938
:105420000968884205D100BF2046FEF73BFA00BF5D
:10543000DBE74C480068D0F89000401C49490968F7
:10544000C1F890005B480068401C5A4908604FF062
:1054500080505949086000BF2046FEF723FA00BF7C
:1054600000BFC2E710B53D480078012803D1FEF720
:1054700099F84049086010BD70B5044600253548CC
:105480000078002803DD46F66250208070BD324867
:105490000078012803D045F689602080F6E72F4880
:1054A0000078FA2803DB45F209202080EEE700BFF0
:1054B00000BFFEF7F3F9054600BF00BF274800789C
:1054C000401C26490870FFF7CDFF00BF00BF2846EB
:1054D000FEF7E8F900BF00BF0020208000BFD5E73D
:1054E00010B51E48007880B9FEF75CF821490968BC
:1054F000441A21480068A04201D21F4804601F4896
:105500000068A04201D21D48046010BD70B5044679
:10551000002510480078002850DD46F665502080B0
:1055200070BD00007C000020E000002080EA000840
:105530007CEA000878EA000875432F4F532D49494B
:10554000492049646C65205461736B004048002019
:10555000D44900208000002081000020C8000020E5
:105560002001002024010020AE000020AF00002018
:10557000B0000020BC000020C0000020C4000020BB
:10558000D0000020D8EA0008CC000020A8EA0008DB
:10559000A4EA0008600000206400002068000020E9
:1055A0006C000020700000207400002078000020B3
:1055B000FE000020F400002004ED00E0F94800782F
:1055C000012803D045F68960208070BDF648007838
:1055D00018B946F664502080F7E700BF00BFFEF719
:1055E0005DF9054600BF00BFEF480078401EEE4958
:1055F00008700846007800280ADD00BF00BF284672
:10560000FEF750F900BF00BF46F663502080DCE78C
:10561000FFF766FF00BF00BF2846FEF743F900BF53
:1056200000BFFFF7DCFE0020208000BFCDE72DE9A2
:10563000F04105460C461646002700BF00BFFEF7A6
:105640002DF9074600BF00BF012D03D00020D74928
:10565000087002E00120D549087014B1D4480460F4
:1056600006E0D44800680A21B0FBF1F0D049086098
:1056700000BF00BF3846FEF715F900BF00BF00208D
:105680003080BDE8F08110B501460C8924B1012CB1
:1056900003D0022C0CD101E000BF14E008684A6876
:1056A00002610024C4601461D0600A6048600AE0AE
:1056B00008684A68C36800241C61C4600261D06045
:1056C0000B60486000BF00BF10BD2DE9F0410446EB
:1056D0000027B9480078002804DD48F2D140208036
:1056E000BDE8F081B0480078002803DD46F663503D
:1056F0002080F5E7AD480078012803D046F67B10FE
:105700002080EDE700BF00BFFEF7C8F8074600BFE6
:1057100000BFAA48007800EB4000A94901EB8006D1
:10572000308902280ADA00BF00BF3846FEF7BAF80F
:1057300000BF00BF46F67A102080D1E73046FFF761
:10574000A2FF3568686D18B999480068A86501E03E
:10575000686DA86500BF00BF3846FEF7A3F800BF1C
:1057600000BFFFF73CFE0020208000BFB8E710B567
:1057700004468C480078E8B902F090FD9149087021
:10578000084600788D4908708E48007800EB40008C
:105790008B4951F820008C490860084600688B4905
:1057A000086001207F49087008F0E0FE43F6992068
:1057B000208002E045F68A60208010BD014600206E
:1057C000088047F25C60704730B548B14568C1F861
:1057D000C05000F10804226893681D6AC56113E097
:1057E00091F83450022D02D0072D08D103E078A59E
:1057F000C1F8C05007E078A5C1F8C05003E079A512
:10580000C1F8C05000BF00BF30BDF0B58E6896F83B
:10581000375007893FB90127078100274F600F6084
:105820000160416023E007897F1C0781026806E070
:10583000946894F83770AF4200DD02E05268002AA5
:10584000F6D100BF32B900274F6043680B60596042
:1058500041600CE017682FB9116000270F604A60A3
:10586000016004E013680B604A6059601160F0BD8C
:1058700010B5C287016300230AE000244C600C606D
:105880000C614C610C83CC61886020315C1CA3B23C
:105890009342F2DB10BD2DE9F041054695F8370043
:1058A00000EB4000464901EB80042F69EE6887B9A0
:1058B00046B9002020812060606095F8370002F032
:1058C0000FFD0EE02089401E2081002030612660FF
:1058D00007E02089401E2081FE600EB9676000E06D
:1058E000376100202861E860BDE8F08138B50446E2
:1058F0000D4685B16B4602222946204605F0ECFF95
:10590000BDF8000018B9032084F8360006E0022034
:1059100084F8360002E0022084F836002046FFF7C3
:10592000BAFF38BD2DE9F04105460C4616461F4624
:105930002648006880F8346000202449096881F80E
:105940003500394621480068FFF7D0FF6CB104F1FB
:105950000808EC60012229461C480068FFF788FF10
:1059600029464046FFF751FF06E000201749096825
:10597000C887164909680863144801682046FFF77C
:1059800023FFBDE8F08110B50489012C03D1002468
:105990000460446033E00C6834BB4A68002414603F
:1059A00002602CE081000020C8000020D000002010
:1059B000CC000020D8EA000880000020AE000020C3
:1059C000D4490020AF000020240100202001002045
:1059D0005461736B205100005461736B2053656DEB
:1059E00000000000200000004C6824B90B6800246F
:1059F0005C60436003E00B684A685A601360048986
:105A0000641E048100244C600C6010BD2DE9F0413F
:105A10000446256BE68F0AE0D5F80C8008F10807EC
:105A200029463846FFF7AFFF2035701E86B2002E9C
:105A3000F2DC0020E0872063BDE8F08130B503464A
:105A4000086BCC8F08E0C5689D4202D10361C2613A
:105A500004E02030651EACB2002CF4DC00BF30BD89
:105A600010B590F8373003EB4303F74C04EB830198
:105A70000B893BB901230B810023C36003610860DC
:105A8000486009E00B895B1C0B810B68C360002335
:105A900003610A681061086010BD10B590F83730D6
:105AA00003EB4303E84C04EB83010B893BB901236F
:105AB0000B810023C36003610860486008E00B8924
:105AC0005B1C0B810023C3604A680261D0604860A0
:105AD00010BD10B5044694F8370002F0F1FB94F8BD
